S0160000457272616E645F446973706C61792E737265637D
S11300000C9424010C9439010C9439010C94390199
S11300100C9439010C9439010C9439010C94390174
S11300200C9439010C9439010C9439010C94390164
S11300300C9439010C9439010C9439010C94390154
S11300400C9439010C9439010C9439010C94390144
S11300500C9439010C9439010C9439010C94390134
S11300600C9439010C943901000000000000005F79
S113007000000007000700147F147F14242A7F2A3D
S11300801223130864623649552250000503000008
S1130090001C2241000041221C0014083E081408E0
S11300A0083E0808005030000008080808080060EE
S11300B060000020100804023E5149453E00427F82
S11300C0400042615149462141454B311814127F89
S11300D01027454545393C4A494930017109050312
S11300E03649494936064949291E0036360000007A
S11300F0563600000814224100141414141400414C
S11301002214080201510906324979413E7E111137
S1130110117E7F494949363E414141227F41412276
S11301201C7F494949417F090909013E4149497AEE
S11301307F0808087F00417F41002040413F017F44
S1130140081422417F404040407F020C027F7F041C
S113015008107F3E4141413E7F090909063E415155
S1130160215E7F09192946464949493101017F0128
S1130170013F4040403F1F2040201F3F4038403F48
S11301806314081463070870080761514945430064
S11301907F41410002040810200041417F00040215
S11301A00102044040404040000102040020545435
S11301B054787F48444438384444442038444448BC
S11301C07F3854545418087E0901020C5252523E8E
S11301D07F0804047800447D40002040443D007FB3
S11301E01028440000417F40007C041804787C08F7
S11301F004047838444444387C141414080814144F
S1130200187C7C080404084854545420043F444097
S1130210203C4040207C1C2040201C3C4030403C82
S113022044281028440C5050503C4464544C44001E
S11302300836410000007F00000041360800100825
S1130240081008784641467811241FBECFEFD8E045
S1130250DEBFCDBF13E0A0E0B1E0E6E0F6E002C00F
S113026005900D92A434B107D9F70E943B010C9478
S113027001030C940000CF93DF93CDB7DEB7CB54CA
S1130280D1090FB6F894DEBF0FBECDBF8BE4E9EF02
S1130290F2E08E010F5F1F4FD80101900D928A95F5
S11302A0E1F70E94EB020E94E0010E94BD01F80107
S11302B001900020E9F73197BF01601B710B20E02A
S11302C040E0C8010E94C402CE014096FC010190A6
S11302D00020E9F73197BF01681B790B28E040E063
S11302E00E94C402CE014F96FC0101900020E9F760
S11302F03197BF01681B790B20E140E00E94C402E2
S1130300CE018E96FC0101900020E9F73197BF01E0
S1130310681B790B28E140E00E94C402CE01CD960F
S1130320FC0101900020E9F73197BF01681B790BAC
S113033020E240E00E94C4020E94C2012FEF83ED3C
S113034090E3215080409040E1F700C00000F6CFD8
S11303505D982A980E94F0022A9A08955D9A2A9834
S11303600E94F0022A9A0895CF93C62F0E94A801F2
S11303708C2F0E94A801CF91089560E080E00E9434
S1130380B40108950F931F93CF93DF930E94BD018F
S1130390C1E0D1E009EF12E089910E94AE01C017DB
S11303A0D107D1F7DF91CF911F910F910895E1E02B
S11303B0F1E089EF92E01192E817F907E1F7089567
S11303C080E68AB95E9A2A9A8FE39CE90197F1F74D
S11303D000C000005E989FEF2AE683E09150204021
S11303E08040E1F700C000005E9A2A9881E20E94F2
S11303F0A80186E00E94A80183E10E94A80182EC82
S11304000E94A80180E20E94A80189E00E94A8013C
S113041080E80E94A80180E40E94A8010E94D701FC
S113042088E00E94A8018CE00E94A8010895843508
S1130430A0F5603390F5262F27704423B9F0669514
S113044066956695E82FF0E084E5689FE00DF11D60
S11304501124EF5FFE4F81E090E002C0880F991FE6
S11304602A95E2F79081892B808308956695669595
S11304706695E82FF0E084E5689FE00DF11D1124F6
S1130480EF5FFE4F81E090E002C0880F991F2A952C
S1130490E2F780959081892380830895DF92EF921B
S11304A0FF920F931F93CF93DF932091000130E0CD
S11304B0F901EE0FFF1FEE0FFF1F2E0F3F1F121645
S11304C013060CF446C058C00D2D10E08F2D622F7A
S11304D00E94F502FE01E80FF11DE859FF4FE49177
S11304E0F0E0812F0E94F50202C0F595E7958A9508
S11304F0E2F7E0FF06C041E0602F8E2D0E94170254
S113050005C040E0602F8E2D0E9417021F5F2091CE
S113051000010F5F412F50E0822F90E0880F991F58
S1130520880F991F880F991F481759077CF2F39475
S1130530E3942F2D30E08091000190E0AC01440F52
S1130540551F440F551F840F951F281739077CF03A
S113055013C0D42EE62EF12CC82FD0E0CE01809704
S1130560EC01CC0FDD1FCC0FDD1FC80FD91F20916C
S113057000012111A9CFDBCFDF91CF911F910F9102
S1130580FF90EF90DF900895EF92FF920F931F93E7
S1130590CF93DF93C42FD22F6623B1F08C017C015B
S11305A0E60EF11C4D2F6C2FF80181918F010E94F2
S11305B04E0290910001292F220F220F920F9F5F6C
S11305C0C90F0E151F0571F7DF91CF911F910F9180
S11305D0FF90EF9008958CE284B981E58CBD089575
S11305E08EBD0DB407FEFDCF0895991B79E004C0BC
S11305F0991F961708F0961B881F7A95C9F780955E
S10906000895F894FFCFF9
S113060601000000000000000000000000000000DF
S113061600000000000000000000000000000000D0
S113062600000000E0F0F8FCFCFEFEFEFE1E0E02DA
S113063600000000000000000000000000000000B0
S113064600000000000000000000000000000000A0
S11306560000000000000000000000000000000090
S11306660000000000000000000000000000000080
S11306760000000000000000030F1F3F7FFFFFFF84
S1130686FFFFFEFCF8F8F0F8FEFEFCF8E0000000C0
S11306960000000000000000000000000000000050
S11306A60000000000000000000000000000000040
S11306B60000000000000000000000000000000030
S11306C6000000F8FCFEFEFFFFF3E0E0C0C0C0E05F
S11306D6E0F1FFFFFFFFFFFFFFFFFFFFFFFFFFFF4D
S11306E6FF3E0000000000000000000000000000C3
S11306F600000000000000000000000000000000F0
S113070600000000000000000000000000000000DF
S113071600000000000000FFFFFFFFFFFFFFFFFFD8
S1130726FFFFFFFFFFFFFFFFFFFFFFFFFFFFFFFFCF
S11307367F3F1F07010000000000000000000000CA
S1130746000000000000000000000000000000009F
S1130756000000000000000000000000000000008F
S11307660000000000000000000000FFFFFFFFFF84
S1130776FFFF7F3F1F0F0F0F070707070707070333
S1130786030101000000000000000000000000005A
S1130796000000000000000000000000000000004F
S11307A6000000000000000000000000000000003F
S11307B60000000000000000000000000000003FF0
S11307C61F0F0703010000000000000000000000E6
S11307D6000000000000000000000000000000000F
S11307E600000000000000000000000000000000FF
S11307F600000000000000000054726173683A2093
S113080656696E63656E74004469736865733A204D
S1130816436872697300005661633A205175696EC4
S1130826000000000000436F6F6B3A204D69636B54
S1130836000000000049646C653A205361726168E7
S107084600000000AA
S9030000FC
