S0160000457272616E645F446973706C61792E737265637D
S11300000C9424010C9439010C9439010C94390199
S11300100C9439010C9439010C9439010C94390174
S11300200C9439010C9439010C9439010C94390164
S11300300C9439010C9439010C9439010C94390154
S11300400C9439010C9439010C9439010C94390144
S11300500C9439010C9439010C9439010C94390134
S11300600C9439010C943901000000000000005F79
S113007000000007000700147F147F14242A7F2A3D
S11300801223130864623649552250000503000008
S1130090001C2241000041221C0014083E081408E0
S11300A0083E0808005030000008080808080060EE
S11300B060000020100804023E5149453E00427F82
S11300C0400042615149462141454B311814127F89
S11300D01027454545393C4A494930017109050312
S11300E03649494936064949291E0036360000007A
S11300F0563600000814224100141414141400414C
S11301002214080201510906324979413E7E111137
S1130110117E7F494949363E414141227F41412276
S11301201C7F494949417F090909013E4149497AEE
S11301307F0808087F00417F41002040413F017F44
S1130140081422417F404040407F020C027F7F041C
S113015008107F3E4141413E7F090909063E415155
S1130160215E7F09192946464949493101017F0128
S1130170013F4040403F1F2040201F3F4038403F48
S11301806314081463070870080761514945430064
S11301907F41410002040810200041417F00040215
S11301A00102044040404040000102040020545435
S11301B054787F48444438384444442038444448BC
S11301C07F3854545418087E0901020C5252523E8E
S11301D07F0804047800447D40002040443D007FB3
S11301E01028440000417F40007C041804787C08F7
S11301F004047838444444387C141414080814144F
S1130200187C7C080404084854545420043F444097
S1130210203C4040207C1C2040201C3C4030403C82
S113022044281028440C5050503C4464544C44001E
S11302300836410000007F00000041360800100825
S1130240081008784641467811241FBECFEFD8E045
S1130250DEBFCDBF13E0A0E0B1E0EEE9F7E002C0FD
S113026005900D92AE33B107D9F70E9464010C9446
S1130270CD030C94000030990FC080E090E001960B
S1130280EFE9FFE03197F1F700C00000309BF7CFB2
S11302900B9710F00E94200331990FC080E090E08A
S11302A00196EFE9FFE03197F1F700C00000319BC0
S11302B0F7CF0B9710F00E94FC020895809135034C
S11302C0805D0E949403089560E875E280E090E008
S11302D00E9454030E944A030E94AB010E94B6028A
S11302E00E943B01FDCF5D982A980E944F032A9AF1
S11302F008955D9A2A980E944F032A9A0895CF93ED
S1130300C62F0E9473018C2F0E947301CF91089510
S113031060E080E00E947F0108950F931F93CF93C4
S1130320DF930E948801CDE3D1E005E313E08991D6
S11303300E947901C017D107D1F7DF91CF911F91A6
S11303400F910895EDE3F1E085E393E01192E8174E
S1130350F907E1F7089580E68AB95E9A2A9A8FE34D
S11303609CE90197F1F700C000005E989FEF2AE630
S113037083E0915020408040E1F700C000005E9A85
S11303802A9881E20E94730186E00E94730183E14E
S11303900E94730182EC0E94730180E20E94730147
S11303A089E00E94730180E80E94730180E40E9446
S11303B073010E94A20188E00E9473018CE00E94F4
S11303C0730108958435A0F5603390F5262F2770C6
S11303D04423B9F0669566956695E82FF0E084E5C8
S11303E0689FE00DF11D1124E35CFE4F81E090E075
S11303F002C0880F991F2A95E2F79081892B808388
S11304000895669566956695E82FF0E084E5689F03
S1130410E00DF11D1124E35CFE4F81E090E002C089
S1130420880F991F2A95E2F780959081892380830C
S11304300895DF92EF92FF920F931F93CF93DF9370
S113044020913C0130E0F901EE0FFF1FEE0FFF1F7A
S11304502E0F3F1F121613060CF446C058C00D2D64
S113046010E08F2D622F0E949F03FE01E80FF11D03
S1130470E859FF4FE491F0E0812F0E949F0302C0EE
S1130480F595E7958A95E2F7E0FF06C041E0602F15
S11304908E2D0E94E20105C040E0602F8E2D0E9447
S11304A0E2011F5F20913C010F5F412F50E0822F3A
S11304B090E0880F991F880F991F880F991F48177C
S11304C059077CF2F394E3942F2D30E080913C01A2
S11304D090E0AC01440F551F440F551F840F951F26
S11304E0281739077CF013C0D42EE62EF12CC82F20
S11304F0D0E0CE018097EC01CC0FDD1FCC0FDD1FC7
S1130500C80FD91F20913C012111A9CFDBCFDF9166
S1130510CF911F910F91FF90EF90DF900895EF928C
S1130520FF920F931F93CF93DF93C42FD22F662391
S1130530B1F08C017C01E60EF11C4D2F6C2FF801FB
S113054081918F010E94190290913C01292F220F61
S1130550220F920F9F5FC90F0E151F0571F7DF91D0
S1130560CF911F910F91FF90EF90089581E08093B8
S113057035030E9488014CE060E18EE30E94190279
S1130580E0E0F1E001900020E9F73197BF0160500D
S1130590714020E040E080E091E00E948F02EFE0B3
S11305A0F1E001900020E9F7BF01605171402CE0B7
S11305B048E18FE091E00E948F02EEE1F1E00190CA
S11305C00020E9F7BF016F51714028E148E18EE155
S11305D091E00E948F02EDE2F1E001900020E9F742
S11305E0BF016E52714024E248E18DE291E00E9425
S11305F08F020E948D01089540913503842F880F46
S1130600480F440F440F60E180E20E941902809178
S113061035038F5F843019F08093350303C081E084
S11306208093350340913503842F880F480F440F7E
S1130630440F60E18EE30E9419020E948D01089527
S113064020913503822F880F280F220F220F40E0BC
S113065063E086E393E00E948F020E948D010E9472
S11306605E012FEF8EE994E2215080409040E1F743
S113067000C0000020913503822F880F280F220F1D
S1130680220F40E063E08AE393E00E948F020E941D
S11306908D0108958CE284B981E58CBD08958EBDE9
S11306A00DB407FEFDCF0895603825E27207810579
S11306B0910509F1DC01CB01880F991FAA1FBB1F0B
S11306C0880F991FAA1FBB1F9C01AD01220F331F66
S11306D0441F551F220F331F441F551F60E074E24F
S11306E084EF90E00E94AB03BA01A9014150510983
S11306F06109710904C047E650E060E070E0BB277F
S1130700A72F962F852F8093C5004093C40088E1BE
S11307108093C1008EE08093C20008958091C00050
S113072085FB882780F90895CF93C82F0E948E03F4
S11307308823E1F3C093C60080E0CF910895991B0C
S113074079E004C0991F961708F0961B881F7A95C4
S1130750C9F780950895A1E21A2EAA1BBB1BFD01BF
S11307600DC0AA1FBB1FEE1FFF1FA217B307E4078C
S1130770F50720F0A21BB30BE40BF50B661F771FE4
S1130780881F991F1A9469F76095709580959095C4
S11107909B01AC01BD01CF010895F894FFCF89
S113079E53454C45435420544F2050494E47004432
S11307AE4953484553000000000000000000545215
S11307BE4153480000000000000000000056414371
S11307CE55554D000000000000000000010000001F
S11307DE0000000000000000000000000000000007
S11307EE00000000000000000000000000000000F7
S11307FEE0F0F8FCFCFEFEFEFE1E0E020000000001
S113080E00000000000000000000000000000000D6
S113081E00000000000000000000000000000000C6
S113082E00000000000000000000000000000000B6
S113083E00000000000000000000000000000000A6
S113084E00000000030F1F3F7FFFFFFFFFFFFEFCB2
S113085EF8F8F0F8FEFEFCF8E000000000000000DE
S113086E0000000000000000000000000000000076
S113087E0000000000000000000000000000000066
S113088E000000000000000000000000000000F85E
S113089EFCFEFEFFFFF3E0E0C0C0C0E0E0F1FFFFAE
S11308AEFFFFFFFFFFFFFFFFFFFFFFFFFF3E000005
S11308BE0000000000000000000000000000000026
S11308CE0000000000000000000000000000000016
S11308DE0000000000000000000000000000000006
S11308EE000000FFFFFFFFFFFFFFFFFFFFFFFFFF03
S11308FEFFFFFFFFFFFFFFFFFFFFFFFF7F3F1F070E
S113090E01000000000000000000000000000000D4
S113091E00000000000000000000000000000000C5
S113092E00000000000000000000000000000000B5
S113093E00000000000000FFFFFFFFFFFFFF7F3FEE
S113094E1F0F0F0F07070707070707030301010010
S113095E0000000000000000000000000000000085
S113096E0000000000000000000000000000000075
S113097E0000000000000000000000000000000065
S113098E00000000000000000000003F1F0F0703DE
S113099E0100000000000000000000000000000044
S11309AE0000000000000000000000000000000035
S11309BE0000000000000000000000000000000025
S11109CE0000000000012D2D2D00202020002F
S9030000FC
